{
  "contractName": "Voting",
  "abi": [
    {
      "inputs": [
        {
          "internalType": "uint256",
          "name": "numOfOptions",
          "type": "uint256"
        }
      ],
      "payable": false,
      "stateMutability": "nonpayable",
      "type": "constructor"
    },
    {
      "constant": true,
      "inputs": [],
      "name": "m_IsOpen",
      "outputs": [
        {
          "internalType": "bool",
          "name": "",
          "type": "bool"
        }
      ],
      "payable": false,
      "stateMutability": "view",
      "type": "function"
    },
    {
      "constant": true,
      "inputs": [
        {
          "internalType": "address",
          "name": "",
          "type": "address"
        }
      ],
      "name": "m_Votes",
      "outputs": [
        {
          "internalType": "uint256",
          "name": "",
          "type": "uint256"
        }
      ],
      "payable": false,
      "stateMutability": "view",
      "type": "function"
    },
    {
      "constant": true,
      "inputs": [
        {
          "internalType": "uint256",
          "name": "option",
          "type": "uint256"
        }
      ],
      "name": "getVotes",
      "outputs": [
        {
          "internalType": "uint256",
          "name": "",
          "type": "uint256"
        }
      ],
      "payable": false,
      "stateMutability": "view",
      "type": "function"
    },
    {
      "constant": true,
      "inputs": [],
      "name": "getAllVotes",
      "outputs": [
        {
          "internalType": "uint256[]",
          "name": "",
          "type": "uint256[]"
        }
      ],
      "payable": false,
      "stateMutability": "view",
      "type": "function"
    },
    {
      "constant": true,
      "inputs": [
        {
          "internalType": "address",
          "name": "elector",
          "type": "address"
        }
      ],
      "name": "getElectorBalance",
      "outputs": [
        {
          "internalType": "uint256",
          "name": "",
          "type": "uint256"
        }
      ],
      "payable": false,
      "stateMutability": "view",
      "type": "function"
    },
    {
      "constant": false,
      "inputs": [
        {
          "internalType": "address",
          "name": "elector",
          "type": "address"
        },
        {
          "internalType": "uint256",
          "name": "votesBalance",
          "type": "uint256"
        }
      ],
      "name": "addElector",
      "outputs": [],
      "payable": false,
      "stateMutability": "nonpayable",
      "type": "function"
    },
    {
      "constant": false,
      "inputs": [
        {
          "components": [
            {
              "internalType": "address",
              "name": "electorAddress",
              "type": "address"
            },
            {
              "internalType": "uint256",
              "name": "voteBalance",
              "type": "uint256"
            }
          ],
          "internalType": "struct Voting.ElectorInputInfo[]",
          "name": "electors",
          "type": "tuple[]"
        }
      ],
      "name": "addElectors",
      "outputs": [],
      "payable": false,
      "stateMutability": "nonpayable",
      "type": "function"
    },
    {
      "constant": false,
      "inputs": [
        {
          "internalType": "bool",
          "name": "value",
          "type": "bool"
        }
      ],
      "name": "setIsOpen",
      "outputs": [],
      "payable": false,
      "stateMutability": "nonpayable",
      "type": "function"
    },
    {
      "constant": false,
      "inputs": [
        {
          "internalType": "address",
          "name": "elector",
          "type": "address"
        },
        {
          "internalType": "uint256",
          "name": "option",
          "type": "uint256"
        }
      ],
      "name": "vote",
      "outputs": [],
      "payable": false,
      "stateMutability": "nonpayable",
      "type": "function"
    }
  ],
  "bytecode": "0x608060405234801561001057600080fd5b506040516111273803806111278339818101604052610032919081019061006f565b806002819055506000600360006101000a81548160ff021916908315150217905550506100b9565b600081519050610069816100a2565b92915050565b60006020828403121561008157600080fd5b600061008f8482850161005a565b91505092915050565b6000819050919050565b6100ab81610098565b81146100b657600080fd5b50565b61105f806100c86000396000f3fe608060405234801561001057600080fd5b50600436106100935760003560e01c80635f74bbde116100665780635f74bbde1461011e578063851b6ef21461013a578063d441704414610158578063fcf0699114610188578063ff981099146101a457610093565b8063085a10cf1461009857806319e13227146100b45780631dd005df146100d2578063232968ae146100ee575b600080fd5b6100b260048036036100ad9190810190610b0c565b6101d4565b005b6100bc610247565b6040516100c99190610e2f565b60405180910390f35b6100ec60048036036100e79190810190610a8b565b61025a565b005b61010860048036036101039190810190610a62565b61034f565b6040516101159190610f2a565b60405180910390f35b61013860048036036101339190810190610a8b565b61042a565b005b6101426106b3565b60405161014f9190610e0d565b60405180910390f35b610172600480360361016d9190810190610a62565b61076e565b60405161017f9190610f2a565b60405180910390f35b6101a2600480360361019d9190810190610ac7565b610786565b005b6101be60048036036101b99190810190610b35565b61093b565b6040516101cb9190610f2a565b60405180910390f35b600360009054906101000a900460ff161515158115151461022a576040517f08c379a000000000000000000000000000000000000000000000000000000000815260040161022190610eaa565b60405180910390fd5b80600360006101000a81548160ff02191690831515021790555050565b600360009054906101000a900460ff1681565b600360009054906101000a900460ff16156102aa576040517f08c379a00000000000000000000000000000000000000000000000000000000081526004016102a190610f0a565b60405180910390fd5b60018060008473ffffffffffffffffffffffffffffffffffffffff1673ffffffffffffffffffffffffffffffffffffffff16815260200190815260200160002060000160006101000a81548160ff02191690831515021790555080600160008473ffffffffffffffffffffffffffffffffffffffff1673ffffffffffffffffffffffffffffffffffffffff168152602001908152602001600020600101819055505050565b6000600160008373ffffffffffffffffffffffffffffffffffffffff1673ffffffffffffffffffffffffffffffffffffffff16815260200190815260200160002060000160009054906101000a900460ff166103e0576040517f08c379a00000000000000000000000000000000000000000000000000000000081526004016103d790610e8a565b60405180910390fd5b600160008373ffffffffffffffffffffffffffffffffffffffff1673ffffffffffffffffffffffffffffffffffffffff168152602001908152602001600020600101549050919050565b600360009054906101000a900460ff16610479576040517f08c379a000000000000000000000000000000000000000000000000000000000815260040161047090610eea565b60405180910390fd5b60025481106104bd576040517f08c379a00000000000000000000000000000000000000000000000000000000081526004016104b490610eca565b60405180910390fd5b600160008373ffffffffffffffffffffffffffffffffffffffff1673ffffffffffffffffffffffffffffffffffffffff16815260200190815260200160002060000160009054906101000a900460ff1661054c576040517f08c379a000000000000000000000000000000000000000000000000000000000815260040161054390610e8a565b60405180910390fd5b6000600160008473ffffffffffffffffffffffffffffffffffffffff1673ffffffffffffffffffffffffffffffffffffffff16815260200190815260200160002060010154116105d1576040517f08c379a00000000000000000000000000000000000000000000000000000000081526004016105c890610e6a565b60405180910390fd5b600160008373ffffffffffffffffffffffffffffffffffffffff1673ffffffffffffffffffffffffffffffffffffffff16815260200190815260200160002060010154600080610620846109cf565b73ffffffffffffffffffffffffffffffffffffffff1673ffffffffffffffffffffffffffffffffffffffff168152602001908152602001600020600082825401925050819055506000600160008473ffffffffffffffffffffffffffffffffffffffff1673ffffffffffffffffffffffffffffffffffffffff168152602001908152602001600020600101819055505050565b6060806002546040519080825280602002602001820160405280156106e75781602001602082028038833980820191505090505b50905060008090505b60025481101561076657600080610706836109cf565b73ffffffffffffffffffffffffffffffffffffffff1673ffffffffffffffffffffffffffffffffffffffff1681526020019081526020016000205482828151811061074d57fe5b60200260200101818152505080806001019150506106f0565b508091505090565b60006020528060005260406000206000915090505481565b600360009054906101000a900460ff16156107d6576040517f08c379a00000000000000000000000000000000000000000000000000000000081526004016107cd90610f0a565b60405180910390fd5b6000828290501161081c576040517f08c379a000000000000000000000000000000000000000000000000000000000815260040161081390610e4a565b60405180910390fd5b60008090505b8282905081101561093657600180600085858581811061083e57fe5b90506040020160000160206108569190810190610a62565b73ffffffffffffffffffffffffffffffffffffffff1673ffffffffffffffffffffffffffffffffffffffff16815260200190815260200160002060000160006101000a81548160ff0219169083151502179055508282828181106108b657fe5b90506040020160200135600160008585858181106108d057fe5b90506040020160000160206108e89190810190610a62565b73ffffffffffffffffffffffffffffffffffffffff1673ffffffffffffffffffffffffffffffffffffffff168152602001908152602001600020600101819055508080600101915050610822565b505050565b60006002548210610981576040517f08c379a000000000000000000000000000000000000000000000000000000000815260040161097890610eca565b60405180910390fd5b60008061098d846109cf565b73ffffffffffffffffffffffffffffffffffffffff1673ffffffffffffffffffffffffffffffffffffffff168152602001908152602001600020549050919050565b6000819050919050565b6000813590506109e881610fd7565b92915050565b60008083601f840112610a0057600080fd5b8235905067ffffffffffffffff811115610a1957600080fd5b602083019150836040820283011115610a3157600080fd5b9250929050565b600081359050610a4781610fee565b92915050565b600081359050610a5c81611005565b92915050565b600060208284031215610a7457600080fd5b6000610a82848285016109d9565b91505092915050565b60008060408385031215610a9e57600080fd5b6000610aac858286016109d9565b9250506020610abd85828601610a4d565b9150509250929050565b60008060208385031215610ada57600080fd5b600083013567ffffffffffffffff811115610af457600080fd5b610b00858286016109ee565b92509250509250929050565b600060208284031215610b1e57600080fd5b6000610b2c84828501610a38565b91505092915050565b600060208284031215610b4757600080fd5b6000610b5584828501610a4d565b91505092915050565b6000610b6a8383610def565b60208301905092915050565b6000610b8182610f55565b610b8b8185610f6d565b9350610b9683610f45565b8060005b83811015610bc7578151610bae8882610b5e565b9750610bb983610f60565b925050600181019050610b9a565b5085935050505092915050565b610bdd81610fa1565b82525050565b6000610bf0601983610f7e565b91507f456c6563746f72732061727261792077617320656d7074792e000000000000006000830152602082019050919050565b6000610c30601e83610f7e565b91507f456c6563746f7220686164206e6f20766f74696e672062616c616e63652e00006000830152602082019050919050565b6000610c70602583610f7e565b91507f456c6563746f7220646f65736e27742068617665206120726967687420746f2060008301527f766f74652e0000000000000000000000000000000000000000000000000000006020830152604082019050919050565b6000610cd6602483610f7e565b91507f456c656374696f6e2077617320616c7265616479206f70656e206f7220636c6f60008301527f7365642e000000000000000000000000000000000000000000000000000000006020830152604082019050919050565b6000610d3c601483610f7e565b91507f496e636f7272656374206f7074696f6e2069642e0000000000000000000000006000830152602082019050919050565b6000610d7c601183610f7e565b91507f566f74696e6720697320636c6f7365642e0000000000000000000000000000006000830152602082019050919050565b6000610dbc601b83610f7e565b91507f566f74696e672068617320616c726561647920737461727465642e00000000006000830152602082019050919050565b610df881610fcd565b82525050565b610e0781610fcd565b82525050565b60006020820190508181036000830152610e278184610b76565b905092915050565b6000602082019050610e446000830184610bd4565b92915050565b60006020820190508181036000830152610e6381610be3565b9050919050565b60006020820190508181036000830152610e8381610c23565b9050919050565b60006020820190508181036000830152610ea381610c63565b9050919050565b60006020820190508181036000830152610ec381610cc9565b9050919050565b60006020820190508181036000830152610ee381610d2f565b9050919050565b60006020820190508181036000830152610f0381610d6f565b9050919050565b60006020820190508181036000830152610f2381610daf565b9050919050565b6000602082019050610f3f6000830184610dfe565b92915050565b6000819050602082019050919050565b600081519050919050565b6000602082019050919050565b600082825260208201905092915050565b600082825260208201905092915050565b6000610f9a82610fad565b9050919050565b60008115159050919050565b600073ffffffffffffffffffffffffffffffffffffffff82169050919050565b6000819050919050565b610fe081610f8f565b8114610feb57600080fd5b50565b610ff781610fa1565b811461100257600080fd5b50565b61100e81610fcd565b811461101957600080fd5b5056fea365627a7a72315820e44d561e3e26cd40adb77ec2ab9918dfcc77cba858f5d3371d15afaab15795136c6578706572696d656e74616cf564736f6c63430005100040",
  "source": "pragma solidity >=0.5.16 <0.9.0;\r\npragma experimental ABIEncoderV2;\r\n\r\ncontract Voting\r\n{\r\n    struct Elector\r\n    {\r\n        bool isAllowedToVote;\r\n        uint voteBalance;\r\n    }\r\n\r\n    struct ElectorInputInfo\r\n    {\r\n        address electorAddress;\r\n        uint voteBalance;\r\n    }\r\n\r\n    mapping(address => uint) public m_Votes;\r\n    mapping(address => Elector) private m_Electors;\r\n    \r\n    uint m_NumOfOptions;\r\n    bool public m_IsOpen;\r\n\r\n    constructor(uint numOfOptions) public \r\n    {\r\n        m_NumOfOptions = numOfOptions;\r\n        m_IsOpen = false;\r\n    }\r\n\r\n    function getVotes(uint option) external view returns (uint) \r\n    {\r\n        // option from 0 to (m_NumOfOptions - 1)\r\n        require(option < m_NumOfOptions, \"Incorrect option id.\");\r\n\r\n        return m_Votes[toAddress(option)];\r\n    }\r\n\r\n    function getAllVotes() external view returns (uint[] memory) \r\n    {\r\n        uint[] memory votes = new uint[](m_NumOfOptions);\r\n        for (uint i = 0; i < m_NumOfOptions; i++) \r\n        {\r\n            votes[i] = m_Votes[toAddress(i)];\r\n        }\r\n\r\n        return votes;\r\n    }\r\n\r\n    function getElectorBalance(address elector) external view returns (uint) \r\n    {\r\n        require(m_Electors[elector].isAllowedToVote, \"Elector doesn't have a right to vote.\");\r\n\r\n        return m_Electors[elector].voteBalance;\r\n    }\r\n\r\n    function addElector(address elector, uint votesBalance) external\r\n    {\r\n        require(!m_IsOpen, \"Voting has already started.\");\r\n\r\n        m_Electors[elector].isAllowedToVote = true;\r\n        m_Electors[elector].voteBalance = votesBalance;\r\n    }\r\n\r\n    function addElectors(ElectorInputInfo[] calldata electors) external\r\n    {\r\n        require(!m_IsOpen, \"Voting has already started.\");\r\n        require(electors.length > 0, \"Electors array was empty.\");\r\n\r\n        for (uint i = 0; i < electors.length; i++) \r\n        {\r\n            m_Electors[electors[i].electorAddress].isAllowedToVote = true;\r\n            m_Electors[electors[i].electorAddress].voteBalance = electors[i].voteBalance;\r\n        }\r\n    }\r\n\r\n    function setIsOpen(bool value) external \r\n    {\r\n        require(value == !m_IsOpen, \"Election was already open or closed.\");\r\n\r\n        m_IsOpen = value;\r\n    }\r\n\r\n    function vote(address elector, uint option) external\r\n    {\r\n        require(m_IsOpen, \"Voting is closed.\");\r\n        require(option < m_NumOfOptions, \"Incorrect option id.\");\r\n        require(m_Electors[elector].isAllowedToVote, \"Elector doesn't have a right to vote.\");\r\n        require(m_Electors[elector].voteBalance > 0, \"Elector had no voting balance.\");\r\n\r\n        m_Votes[toAddress(option)] += m_Electors[elector].voteBalance;\r\n        m_Electors[elector].voteBalance = 0;\r\n    }\r\n\r\n    function toAddress(uint value) private pure returns (address) \r\n    {\r\n        return address(uint160(value));\r\n    }\r\n}",
  "sourcePath": "C:\\Users\\ohrim\\Desktop\\sm_contracts\\voting_proj_advanced\\contracts\\contracts\\Voting.sol",
  "compiler": {
    "name": "solc",
    "version": "0.5.16+commit.9c3226ce.Emscripten.clang"
  },
  "schemaVersion": "3.4.13",
  "updatedAt": "2023-03-31T08:16:30.168Z",
  "networkType": "ethereum",
  "devdoc": {
    "methods": {}
  },
  "userdoc": {
    "methods": {}
  }
}